{
  "contractName": "Migrations",
  "abi": [
    {
      "inputs": [],
      "stateMutability": "nonpayable",
      "type": "constructor"
    },
    {
      "inputs": [],
      "name": "last_completed_migration",
      "outputs": [
        {
          "internalType": "uint256",
          "name": "",
          "type": "uint256"
        }
      ],
      "stateMutability": "view",
      "type": "function",
      "constant": true
    },
    {
      "inputs": [],
      "name": "owner",
      "outputs": [
        {
          "internalType": "address",
          "name": "",
          "type": "address"
        }
      ],
      "stateMutability": "view",
      "type": "function",
      "constant": true
    },
    {
      "inputs": [
        {
          "internalType": "uint256",
          "name": "completed",
          "type": "uint256"
        }
      ],
      "name": "setCompleted",
      "outputs": [],
      "stateMutability": "nonpayable",
      "type": "function"
    },
    {
      "inputs": [
        {
          "internalType": "address",
          "name": "new_address",
          "type": "address"
        }
      ],
      "name": "upgrade",
      "outputs": [],
      "stateMutability": "nonpayable",
      "type": "function"
    }
  ],
  "bytecode": "0x608060405234801561001057600080fd5b5060008054600160a060020a0319163317905561026e806100326000396000f3fe608060405234801561001057600080fd5b5060043610610068577c010000000000000000000000000000000000000000000000000000000060003504630900f010811461006d578063445df0ac146100825780638da5cb5b146100a0578063fdacd576146100b5575b600080fd5b61008061007b3660046101bb565b6100c8565b005b61008a610174565b604051610097919061022f565b60405180910390f35b6100a861017a565b604051610097919061020e565b6100806100c33660046101f6565b610196565b60005473ffffffffffffffffffffffffffffffffffffffff16331415610171576001546040517ffdacd576000000000000000000000000000000000000000000000000000000008152829173ffffffffffffffffffffffffffffffffffffffff83169163fdacd5769161013d9160040161022f565b600060405180830381600087803b15801561015757600080fd5b505af115801561016b573d6000803e3d6000fd5b50505050505b50565b60015481565b60005473ffffffffffffffffffffffffffffffffffffffff1681565b60005473ffffffffffffffffffffffffffffffffffffffff1633141561017157600155565b6000602082840312156101cc578081fd5b813573ffffffffffffffffffffffffffffffffffffffff811681146101ef578182fd5b9392505050565b600060208284031215610207578081fd5b5035919050565b73ffffffffffffffffffffffffffffffffffffffff91909116815260200190565b9081526020019056fea2646970667358221220d40337d0847a53bab4a32023bc490108a7163d72a7bec70463dcd6ff041bbe2764736f6c63430008000033",
  "immutableReferences": {},
  "source": "pragma solidity >=0.4.24;\n\ncontract Migrations {\n  address public owner;\n  uint public last_completed_migration;\n\n  constructor() public {\n    owner = msg.sender;\n  }\n\n  modifier restricted() {\n    if (msg.sender == owner) _;\n  }\n\n  function setCompleted(uint completed) public restricted {\n    last_completed_migration = completed;\n  }\n\n  function upgrade(address new_address) public restricted {\n    Migrations upgraded = Migrations(new_address);\n    upgraded.setCompleted(last_completed_migration);\n  }\n}\n",
  "sourcePath": "D:/Lineker/Dev/Udacity_blockchain/nd1309-Project-6b-Example-Template-master/nd1309-Project-6b/project-6/contracts/Migrations.sol",
  "compiler": {
    "name": "solc",
    "version": "0.8.0+commit.c7dfd78e.Emscripten.clang"
  },
  "schemaVersion": "3.4.1",
  "updatedAt": "2021-08-20T14:19:22.451Z",
  "networkType": "ethereum",
  "devdoc": {
    "kind": "dev",
    "methods": {},
    "version": 1
  },
  "userdoc": {
    "kind": "user",
    "methods": {},
    "version": 1
  }
}