{
  "contractName": "SupplyChain",
  "abi": [
    {
      "inputs": [],
      "stateMutability": "payable",
      "type": "constructor",
      "payable": true
    },
    {
      "anonymous": false,
      "inputs": [
        {
          "indexed": true,
          "internalType": "address",
          "name": "account",
          "type": "address"
        }
      ],
      "name": "ConsumerAdded",
      "type": "event"
    },
    {
      "anonymous": false,
      "inputs": [
        {
          "indexed": true,
          "internalType": "address",
          "name": "account",
          "type": "address"
        }
      ],
      "name": "ConsumerRemoved",
      "type": "event"
    },
    {
      "anonymous": false,
      "inputs": [
        {
          "indexed": true,
          "internalType": "address",
          "name": "account",
          "type": "address"
        }
      ],
      "name": "DistributorAdded",
      "type": "event"
    },
    {
      "anonymous": false,
      "inputs": [
        {
          "indexed": true,
          "internalType": "address",
          "name": "account",
          "type": "address"
        }
      ],
      "name": "DistributorRemoved",
      "type": "event"
    },
    {
      "anonymous": false,
      "inputs": [
        {
          "indexed": true,
          "internalType": "address",
          "name": "account",
          "type": "address"
        }
      ],
      "name": "FarmerAdded",
      "type": "event"
    },
    {
      "anonymous": false,
      "inputs": [
        {
          "indexed": true,
          "internalType": "address",
          "name": "account",
          "type": "address"
        }
      ],
      "name": "FarmerRemoved",
      "type": "event"
    },
    {
      "anonymous": false,
      "inputs": [
        {
          "indexed": false,
          "internalType": "uint256",
          "name": "upc",
          "type": "uint256"
        }
      ],
      "name": "ForSale",
      "type": "event"
    },
    {
      "anonymous": false,
      "inputs": [
        {
          "indexed": false,
          "internalType": "uint256",
          "name": "upc",
          "type": "uint256"
        }
      ],
      "name": "Harvested",
      "type": "event"
    },
    {
      "anonymous": false,
      "inputs": [
        {
          "indexed": false,
          "internalType": "uint256",
          "name": "upc",
          "type": "uint256"
        }
      ],
      "name": "Packed",
      "type": "event"
    },
    {
      "anonymous": false,
      "inputs": [
        {
          "indexed": false,
          "internalType": "uint256",
          "name": "upc",
          "type": "uint256"
        }
      ],
      "name": "Processed",
      "type": "event"
    },
    {
      "anonymous": false,
      "inputs": [
        {
          "indexed": false,
          "internalType": "uint256",
          "name": "upc",
          "type": "uint256"
        }
      ],
      "name": "Purchased",
      "type": "event"
    },
    {
      "anonymous": false,
      "inputs": [
        {
          "indexed": false,
          "internalType": "uint256",
          "name": "upc",
          "type": "uint256"
        }
      ],
      "name": "Received",
      "type": "event"
    },
    {
      "anonymous": false,
      "inputs": [
        {
          "indexed": true,
          "internalType": "address",
          "name": "account",
          "type": "address"
        }
      ],
      "name": "RetailerAdded",
      "type": "event"
    },
    {
      "anonymous": false,
      "inputs": [
        {
          "indexed": true,
          "internalType": "address",
          "name": "account",
          "type": "address"
        }
      ],
      "name": "RetailerRemoved",
      "type": "event"
    },
    {
      "anonymous": false,
      "inputs": [
        {
          "indexed": false,
          "internalType": "uint256",
          "name": "upc",
          "type": "uint256"
        }
      ],
      "name": "Shipped",
      "type": "event"
    },
    {
      "anonymous": false,
      "inputs": [
        {
          "indexed": false,
          "internalType": "uint256",
          "name": "upc",
          "type": "uint256"
        }
      ],
      "name": "Sold",
      "type": "event"
    },
    {
      "anonymous": false,
      "inputs": [
        {
          "indexed": true,
          "internalType": "address",
          "name": "oldOwner",
          "type": "address"
        },
        {
          "indexed": true,
          "internalType": "address",
          "name": "newOwner",
          "type": "address"
        }
      ],
      "name": "TransferOwnership",
      "type": "event"
    },
    {
      "inputs": [
        {
          "internalType": "address",
          "name": "account",
          "type": "address"
        }
      ],
      "name": "addConsumer",
      "outputs": [],
      "stateMutability": "nonpayable",
      "type": "function"
    },
    {
      "inputs": [
        {
          "internalType": "address",
          "name": "account",
          "type": "address"
        }
      ],
      "name": "addDistributor",
      "outputs": [],
      "stateMutability": "nonpayable",
      "type": "function"
    },
    {
      "inputs": [
        {
          "internalType": "address",
          "name": "account",
          "type": "address"
        }
      ],
      "name": "addFarmer",
      "outputs": [],
      "stateMutability": "nonpayable",
      "type": "function"
    },
    {
      "inputs": [
        {
          "internalType": "address",
          "name": "account",
          "type": "address"
        }
      ],
      "name": "addRetailer",
      "outputs": [],
      "stateMutability": "nonpayable",
      "type": "function"
    },
    {
      "inputs": [
        {
          "internalType": "address",
          "name": "account",
          "type": "address"
        }
      ],
      "name": "isConsumer",
      "outputs": [
        {
          "internalType": "bool",
          "name": "",
          "type": "bool"
        }
      ],
      "stateMutability": "view",
      "type": "function",
      "constant": true
    },
    {
      "inputs": [
        {
          "internalType": "address",
          "name": "account",
          "type": "address"
        }
      ],
      "name": "isDistributor",
      "outputs": [
        {
          "internalType": "bool",
          "name": "",
          "type": "bool"
        }
      ],
      "stateMutability": "view",
      "type": "function",
      "constant": true
    },
    {
      "inputs": [
        {
          "internalType": "address",
          "name": "account",
          "type": "address"
        }
      ],
      "name": "isFarmer",
      "outputs": [
        {
          "internalType": "bool",
          "name": "",
          "type": "bool"
        }
      ],
      "stateMutability": "view",
      "type": "function",
      "constant": true
    },
    {
      "inputs": [],
      "name": "isOwner",
      "outputs": [
        {
          "internalType": "bool",
          "name": "",
          "type": "bool"
        }
      ],
      "stateMutability": "view",
      "type": "function",
      "constant": true
    },
    {
      "inputs": [
        {
          "internalType": "address",
          "name": "account",
          "type": "address"
        }
      ],
      "name": "isRetailer",
      "outputs": [
        {
          "internalType": "bool",
          "name": "",
          "type": "bool"
        }
      ],
      "stateMutability": "view",
      "type": "function",
      "constant": true
    },
    {
      "inputs": [],
      "name": "owner",
      "outputs": [
        {
          "internalType": "address",
          "name": "",
          "type": "address"
        }
      ],
      "stateMutability": "view",
      "type": "function",
      "constant": true
    },
    {
      "inputs": [],
      "name": "renounceConsumer",
      "outputs": [],
      "stateMutability": "nonpayable",
      "type": "function"
    },
    {
      "inputs": [],
      "name": "renounceDistributor",
      "outputs": [],
      "stateMutability": "nonpayable",
      "type": "function"
    },
    {
      "inputs": [],
      "name": "renounceFarmer",
      "outputs": [],
      "stateMutability": "nonpayable",
      "type": "function"
    },
    {
      "inputs": [],
      "name": "renounceOwnership",
      "outputs": [],
      "stateMutability": "nonpayable",
      "type": "function"
    },
    {
      "inputs": [],
      "name": "renounceRetailer",
      "outputs": [],
      "stateMutability": "nonpayable",
      "type": "function"
    },
    {
      "inputs": [
        {
          "internalType": "address",
          "name": "newOwner",
          "type": "address"
        }
      ],
      "name": "transferOwnership",
      "outputs": [],
      "stateMutability": "nonpayable",
      "type": "function"
    },
    {
      "inputs": [],
      "name": "kill",
      "outputs": [],
      "stateMutability": "nonpayable",
      "type": "function"
    },
    {
      "inputs": [
        {
          "internalType": "uint256",
          "name": "_upc",
          "type": "uint256"
        },
        {
          "internalType": "address",
          "name": "_originFarmerID",
          "type": "address"
        },
        {
          "internalType": "string",
          "name": "_originFarmName",
          "type": "string"
        },
        {
          "internalType": "string",
          "name": "_originFarmInformation",
          "type": "string"
        },
        {
          "internalType": "string",
          "name": "_originFarmLatitude",
          "type": "string"
        },
        {
          "internalType": "string",
          "name": "_originFarmLongitude",
          "type": "string"
        },
        {
          "internalType": "string",
          "name": "_productNotes",
          "type": "string"
        }
      ],
      "name": "harvestItem",
      "outputs": [],
      "stateMutability": "nonpayable",
      "type": "function"
    },
    {
      "inputs": [
        {
          "internalType": "uint256",
          "name": "_upc",
          "type": "uint256"
        }
      ],
      "name": "processItem",
      "outputs": [],
      "stateMutability": "nonpayable",
      "type": "function"
    },
    {
      "inputs": [
        {
          "internalType": "uint256",
          "name": "_upc",
          "type": "uint256"
        }
      ],
      "name": "packItem",
      "outputs": [],
      "stateMutability": "nonpayable",
      "type": "function"
    },
    {
      "inputs": [
        {
          "internalType": "uint256",
          "name": "_upc",
          "type": "uint256"
        },
        {
          "internalType": "uint256",
          "name": "_price",
          "type": "uint256"
        }
      ],
      "name": "sellItem",
      "outputs": [],
      "stateMutability": "nonpayable",
      "type": "function"
    },
    {
      "inputs": [
        {
          "internalType": "uint256",
          "name": "_upc",
          "type": "uint256"
        }
      ],
      "name": "buyItem",
      "outputs": [],
      "stateMutability": "payable",
      "type": "function",
      "payable": true
    },
    {
      "inputs": [
        {
          "internalType": "uint256",
          "name": "_upc",
          "type": "uint256"
        }
      ],
      "name": "shipItem",
      "outputs": [],
      "stateMutability": "nonpayable",
      "type": "function"
    },
    {
      "inputs": [
        {
          "internalType": "uint256",
          "name": "_upc",
          "type": "uint256"
        }
      ],
      "name": "receiveItem",
      "outputs": [],
      "stateMutability": "nonpayable",
      "type": "function"
    },
    {
      "inputs": [
        {
          "internalType": "uint256",
          "name": "_upc",
          "type": "uint256"
        }
      ],
      "name": "purchaseItem",
      "outputs": [],
      "stateMutability": "nonpayable",
      "type": "function"
    },
    {
      "inputs": [
        {
          "internalType": "uint256",
          "name": "_upc",
          "type": "uint256"
        }
      ],
      "name": "fetchItemBufferOne",
      "outputs": [
        {
          "internalType": "uint256",
          "name": "itemSKU",
          "type": "uint256"
        },
        {
          "internalType": "uint256",
          "name": "itemUPC",
          "type": "uint256"
        },
        {
          "internalType": "address",
          "name": "ownerID",
          "type": "address"
        },
        {
          "internalType": "address",
          "name": "originFarmerID",
          "type": "address"
        },
        {
          "internalType": "string",
          "name": "originFarmName",
          "type": "string"
        },
        {
          "internalType": "string",
          "name": "originFarmInformation",
          "type": "string"
        },
        {
          "internalType": "string",
          "name": "originFarmLatitude",
          "type": "string"
        },
        {
          "internalType": "string",
          "name": "originFarmLongitude",
          "type": "string"
        }
      ],
      "stateMutability": "view",
      "type": "function",
      "constant": true
    },
    {
      "inputs": [
        {
          "internalType": "uint256",
          "name": "_upc",
          "type": "uint256"
        }
      ],
      "name": "fetchItemBufferTwo",
      "outputs": [
        {
          "internalType": "uint256",
          "name": "itemSKU",
          "type": "uint256"
        },
        {
          "internalType": "uint256",
          "name": "itemUPC",
          "type": "uint256"
        },
        {
          "internalType": "uint256",
          "name": "productID",
          "type": "uint256"
        },
        {
          "internalType": "string",
          "name": "productNotes",
          "type": "string"
        },
        {
          "internalType": "uint256",
          "name": "productPrice",
          "type": "uint256"
        },
        {
          "internalType": "uint256",
          "name": "itemState",
          "type": "uint256"
        },
        {
          "internalType": "address",
          "name": "distributorID",
          "type": "address"
        },
        {
          "internalType": "address",
          "name": "retailerID",
          "type": "address"
        },
        {
          "internalType": "address",
          "name": "consumerID",
          "type": "address"
        }
      ],
      "stateMutability": "view",
      "type": "function",
      "constant": true
    }
  ],
  "bytecode": "0x6080604081905260008054600160a060020a0319163317808255600160a060020a0316917f5c486528ec3e3f0ea91181cff8116f02bfa350e03b8b6f12e00765adbb5af85c908290a36200005c33640100000000620000a8810204565b6200007033640100000000620000fa810204565b62000084336401000000006200014c810204565b62000098336401000000006200019e810204565b600160068190556005556200027f565b620000c360018264010000000062003b1b620001f082021704565b604051600160a060020a038216907f2e0ded4123377a3c2bc9a26f1717655a129e2f20752924d42e730ec89c83dbd090600090a250565b6200011560028264010000000062003b1b620001f082021704565b604051600160a060020a038216907fddbf200aa634dc3fb81cfd68583dd1040d1c751d335e1d86b631bde3e977fea890600090a250565b6200016760038264010000000062003b1b620001f082021704565b604051600160a060020a038216907f71ae26cad02663e3d92efd6ec56031a80d74a20c0ab4183faa8bf262261c9baa90600090a250565b620001b960048264010000000062003b1b620001f082021704565b604051600160a060020a038216907f28b26e7a3d20aedbc5f8f2ebf7da671c0491723a2b78f47a097b0e46dee0714290600090a250565b600160a060020a0381166200020457600080fd5b62000219828264010000000062000249810204565b156200022457600080fd5b600160a060020a0316600090815260209190915260409020805460ff19166001179055565b6000600160a060020a0382166200025f57600080fd5b50600160a060020a03166000908152602091909152604090205460ff1690565b61439e806200028f6000396000f3fe6080604052600436106101c9576000357c010000000000000000000000000000000000000000000000000000000090048063834ff73911610109578063bdd8a6a8116100a7578063e7fb74c711610081578063e7fb74c7146104a4578063f2fde38b146104b7578063f30fc480146104d7578063f61c899a146104f7576101c9565b8063bdd8a6a81461044f578063d38ea5bf1461046f578063db0e6a2f1461048f576101c9565b80638f0c86fa116100e35780638f0c86fa146103da5780638f32d59b146103fa578063a26be9991461040f578063b94290691461042f576101c9565b8063834ff739146103785780638da5cb5b146103985780638ec4f505146103ba576101c9565b8063644241db116101765780637250e224116101505780637250e224146102ef57806377c459131461030f57806380c3f96d1461034357806380fc0ce414610363576101c9565b8063644241db1461029057806366225ff9146102a5578063715018a6146102da576101c9565b806349dae766116101a757806349dae766146102255780635da09b881461024557806361e6982d1461027b576101c9565b8063112940f9146101ce5780632d923561146101f057806341c0e1b514610210575b600080fd5b3480156101da57600080fd5b506101ee6101e9366004613fa0565b610517565b005b3480156101fc57600080fd5b506101ee61020b3660046140bf565b610535565b34801561021c57600080fd5b506101ee610bd3565b34801561023157600080fd5b506101ee610240366004613fc1565b610bd5565b34801561025157600080fd5b50610265610260366004613fa0565b611260565b604051610272919061413f565b60405180910390f35b34801561028757600080fd5b506101ee611273565b34801561029c57600080fd5b506101ee61127c565b3480156102b157600080fd5b506102c56102c0366004613fc1565b611285565b60405161027299989796959493929190614243565b3480156102e657600080fd5b506101ee6113d4565b3480156102fb57600080fd5b506101ee61030a366004613fa0565b61143c565b34801561031b57600080fd5b5061032f61032a366004613fc1565b611457565b6040516102729897969594939291906141bf565b34801561034f57600080fd5b506101ee61035e366004613fa0565b61170d565b34801561036f57600080fd5b506101ee611728565b34801561038457600080fd5b50610265610393366004613fa0565b611731565b3480156103a457600080fd5b506103ad611746565b604051610272919061412b565b3480156103c657600080fd5b506101ee6103d5366004613fa0565b611755565b3480156103e657600080fd5b506102656103f5366004613fa0565b611770565b34801561040657600080fd5b5061026561177d565b34801561041b57600080fd5b506101ee61042a366004613fc1565b61178e565b34801561043b57600080fd5b5061026561044a366004613fa0565b611dc2565b34801561045b57600080fd5b506101ee61046a366004613fd9565b611dcf565b34801561047b57600080fd5b506101ee61048a366004613fc1565b6120ad565b34801561049b57600080fd5b506101ee6126e6565b6101ee6104b2366004613fc1565b6126ef565b3480156104c357600080fd5b506101ee6104d2366004613fa0565b612dd3565b3480156104e357600080fd5b506101ee6104f2366004613fc1565b612ded565b34801561050357600080fd5b506101ee610512366004613fc1565b613498565b61052033611731565b61052957600080fd5b61053281613b67565b50565b61053e33611dc2565b61054757600080fd5b600082815260076020526040902060020154600160a060020a03163381146105a4576040517f08c379a000000000000000000000000000000000000000000000000000000000815260040161059b90614181565b60405180910390fd5b8260026000828152600760208190526040909120600b015460ff16908111156105e457600080516020614349833981519152600052602160045260246000fd5b146105ee57600080fd5b600084815260076020908152604080832081516101e081018352815481526001820154938101939093526002810154600160a060020a039081169284019290925260038101549091166060830152600481018054608084019190610651906142d2565b80601f016020809104026020016040519081016040528092919081815260200182805461067d906142d2565b80156106ca5780601f1061069f576101008083540402835291602001916106ca565b820191906000526020600020905b8154815290600101906020018083116106ad57829003601f168201915b505050505081526020016005820180546106e3906142d2565b80601f016020809104026020016040519081016040528092919081815260200182805461070f906142d2565b801561075c5780601f106107315761010080835404028352916020019161075c565b820191906000526020600020905b81548152906001019060200180831161073f57829003601f168201915b50505050508152602001600682018054610775906142d2565b80601f01602080910402602001604051908101604052809291908181526020018280546107a1906142d2565b80156107ee5780601f106107c3576101008083540402835291602001916107ee565b820191906000526020600020905b8154815290600101906020018083116107d157829003601f168201915b50505050508152602001600782018054610807906142d2565b80601f0160208091040260200160405190810160405280929190818152602001828054610833906142d2565b80156108805780601f1061085557610100808354040283529160200191610880565b820191906000526020600020905b81548152906001019060200180831161086357829003601f168201915b50505050508152602001600882015481526020016009820180546108a3906142d2565b80601f01602080910402602001604051908101604052809291908181526020018280546108cf906142d2565b801561091c5780601f106108f15761010080835404028352916020019161091c565b820191906000526020600020905b8154815290600101906020018083116108ff57829003601f168201915b5050509183525050600a8201546020820152600b82015460409091019060ff16600781111561096257600080516020614349833981519152600052602160045260246000fd5b600781111561098857600080516020614349833981519152600052602160045260246000fd5b8152600b8201546101009004600160a060020a039081166020830152600c83015481166040830152600d909201549091166060909101529050600361016082018190525061014081018490526000858152600760209081526040918290208351815581840151600182015591830151600283018054600160a060020a0392831673ffffffffffffffffffffffffffffffffffffffff1991821617909155606085015160038501805491909316911617905560808301518051849392610a54926004850192910190613e6f565b5060a08201518051610a70916005840191602090910190613e6f565b5060c08201518051610a8c916006840191602090910190613e6f565b5060e08201518051610aa8916007840191602090910190613e6f565b5061010082015160088201556101208201518051610ad0916009840191602090910190613e6f565b50610140820151600a820155610160820151600b8201805460ff19166001836007811115610b1557600080516020614349833981519152600052602160045260246000fd5b0217905550610180820151600b8201805474ffffffffffffffffffffffffffffffffffffffff001916610100600160a060020a03938416021790556101a0830151600c8301805473ffffffffffffffffffffffffffffffffffffffff199081169284169290921790556101c090930151600d909201805490931691161790556040517fa96ae0fc3224ebd79eebfe54bd130cc9cb94416cddd1f2386115e00b7253246890610bc49087906141b6565b60405180910390a15050505050565b565b610bde33611dc2565b610be757600080fd5b600081815260076020526040902060020154600160a060020a0316338114610c3b576040517f08c379a000000000000000000000000000000000000000000000000000000000815260040161059b90614181565b81600080828152600760208190526040909120600b015460ff1690811115610c7a57600080516020614349833981519152600052602160045260246000fd5b14610c8457600080fd5b600083815260076020908152604080832081516101e081018352815481526001820154938101939093526002810154600160a060020a039081169284019290925260038101549091166060830152600481018054608084019190610ce7906142d2565b80601f0160208091040260200160405190810160405280929190818152602001828054610d13906142d2565b8015610d605780601f10610d3557610100808354040283529160200191610d60565b820191906000526020600020905b815481529060010190602001808311610d4357829003601f168201915b50505050508152602001600582018054610d79906142d2565b80601f0160208091040260200160405190810160405280929190818152602001828054610da5906142d2565b8015610df25780601f10610dc757610100808354040283529160200191610df2565b820191906000526020600020905b815481529060010190602001808311610dd557829003601f168201915b50505050508152602001600682018054610e0b906142d2565b80601f0160208091040260200160405190810160405280929190818152602001828054610e37906142d2565b8015610e845780601f10610e5957610100808354040283529160200191610e84565b820191906000526020600020905b815481529060010190602001808311610e6757829003601f168201915b50505050508152602001600782018054610e9d906142d2565b80601f0160208091040260200160405190810160405280929190818152602001828054610ec9906142d2565b8015610f165780601f10610eeb57610100808354040283529160200191610f16565b820191906000526020600020905b815481529060010190602001808311610ef957829003601f168201915b5050505050815260200160088201548152602001600982018054610f39906142d2565b80601f0160208091040260200160405190810160405280929190818152602001828054610f65906142d2565b8015610fb25780601f10610f8757610100808354040283529160200191610fb2565b820191906000526020600020905b815481529060010190602001808311610f9557829003601f168201915b5050509183525050600a8201546020820152600b82015460409091019060ff166007811115610ff857600080516020614349833981519152600052602160045260246000fd5b600781111561101e57600080516020614349833981519152600052602160045260246000fd5b8152600b8201546101009004600160a060020a039081166020830152600c83015481166040830152600d90920154909116606090910152905060016101608201819052506000848152600760209081526040918290208351815581840151600182015591830151600283018054600160a060020a0392831673ffffffffffffffffffffffffffffffffffffffff19918216179091556060850151600385018054919093169116179055608083015180518493926110e2926004850192910190613e6f565b5060a082015180516110fe916005840191602090910190613e6f565b5060c0820151805161111a916006840191602090910190613e6f565b5060e08201518051611136916007840191602090910190613e6f565b506101008201516008820155610120820151805161115e916009840191602090910190613e6f565b50610140820151600a820155610160820151600b8201805460ff191660018360078111156111a357600080516020614349833981519152600052602160045260246000fd5b0217905550610180820151600b8201805474ffffffffffffffffffffffffffffffffffffffff001916610100600160a060020a03938416021790556101a0830151600c8301805473ffffffffffffffffffffffffffffffffffffffff199081169284169290921790556101c090930151600d909201805490931691161790556040517f5afe3b1bf87069693c075da5c22a98d63d1aef98a30dbbe538d0781a98b77ee5906112529086906141b6565b60405180910390a150505050565b600061126d600383613ba9565b50919050565b610bd333613bde565b610bd333613c20565b6000818152600760205260408120805460018201546008830154600990930180549294919392606092918291829182918291906112c1906142d2565b80601f01602080910402602001604051908101604052809291908181526020018280546112ed906142d2565b801561133a5780601f1061130f5761010080835404028352916020019161133a565b820191906000526020600020905b81548152906001019060200180831161131d57829003601f168201915b50505060008d8152600760208190526040909120600a810154600b90910154949a50985060ff90931692831115915061138c905057600080516020614349833981519152600052602160045260246000fd5b60008b8152600760205260409020600b810154600c820154600d90920154929650600160a060020a036101009091048116955090811693501690509193959799909294969850565b6113dc61177d565b6113e557600080fd5b60008054604051600160a060020a03909116907f5c486528ec3e3f0ea91181cff8116f02bfa350e03b8b6f12e00765adbb5af85c908390a36000805473ffffffffffffffffffffffffffffffffffffffff19169055565b61144533611770565b61144e57600080fd5b61053281613c62565b600081815260076020526040902080546001820154600283015460038401546004909401805493949293600160a060020a0392831693909216916060918291829182916114a3906142d2565b80601f01602080910402602001604051908101604052809291908181526020018280546114cf906142d2565b801561151c5780601f106114f15761010080835404028352916020019161151c565b820191906000526020600020905b8154815290600101906020018083116114ff57829003601f168201915b50505060008c8152600760205260409020600501805493975092611542925090506142d2565b80601f016020809104026020016040519081016040528092919081815260200182805461156e906142d2565b80156115bb5780601f10611590576101008083540402835291602001916115bb565b820191906000526020600020905b81548152906001019060200180831161159e57829003601f168201915b50505060008c81526007602052604090206006018054939650926115e1925090506142d2565b80601f016020809104026020016040519081016040528092919081815260200182805461160d906142d2565b801561165a5780601f1061162f5761010080835404028352916020019161165a565b820191906000526020600020905b81548152906001019060200180831161163d57829003601f168201915b50505050509150600760008a81526020019081526020016000206007018054611682906142d2565b80601f01602080910402602001604051908101604052809291908181526020018280546116ae906142d2565b80156116fb5780601f106116d0576101008083540402835291602001916116fb565b820191906000526020600020905b8154815290600101906020018083116116de57829003601f168201915b50505050509050919395975091939597565b61171633611dc2565b61171f57600080fd5b61053281613ca4565b610bd333613ce6565b600061173e600483613ba9565b90505b919050565b600054600160a060020a031690565b61175e33611260565b61176757600080fd5b61053281613d28565b600061173e600283613ba9565b600054600160a060020a0316331490565b8060056000828152600760208190526040909120600b015460ff16908111156117ce57600080516020614349833981519152600052602160045260246000fd5b146117d857600080fd5b600082815260076020908152604080832081516101e081018352815481526001820154938101939093526002810154600160a060020a03908116928401929092526003810154909116606083015260048101805460808401919061183b906142d2565b80601f0160208091040260200160405190810160405280929190818152602001828054611867906142d2565b80156118b45780601f10611889576101008083540402835291602001916118b4565b820191906000526020600020905b81548152906001019060200180831161189757829003601f168201915b505050505081526020016005820180546118cd906142d2565b80601f01602080910402602001604051908101604052809291908181526020018280546118f9906142d2565b80156119465780601f1061191b57610100808354040283529160200191611946565b820191906000526020600020905b81548152906001019060200180831161192957829003601f168201915b5050505050815260200160068201805461195f906142d2565b80601f016020809104026020016040519081016040528092919081815260200182805461198b906142d2565b80156119d85780601f106119ad576101008083540402835291602001916119d8565b820191906000526020600020905b8154815290600101906020018083116119bb57829003601f168201915b505050505081526020016007820180546119f1906142d2565b80601f0160208091040260200160405190810160405280929190818152602001828054611a1d906142d2565b8015611a6a5780601f10611a3f57610100808354040283529160200191611a6a565b820191906000526020600020905b815481529060010190602001808311611a4d57829003601f168201915b5050505050815260200160088201548152602001600982018054611a8d906142d2565b80601f0160208091040260200160405190810160405280929190818152602001828054611ab9906142d2565b8015611b065780601f10611adb57610100808354040283529160200191611b06565b820191906000526020600020905b815481529060010190602001808311611ae957829003601f168201915b5050509183525050600a8201546020820152600b82015460409091019060ff166007811115611b4c57600080516020614349833981519152600052602160045260246000fd5b6007811115611b7257600080516020614349833981519152600052602160045260246000fd5b8152600b8201546101009004600160a060020a039081166020830152600c8301548116604080840191909152600d9093015416606090910152339082018190526101a0820152905060066101608201819052506000838152600760209081526040918290208351815581840151600182015591830151600283018054600160a060020a0392831673ffffffffffffffffffffffffffffffffffffffff1991821617909155606085015160038501805491909316911617905560808301518051849392611c45926004850192910190613e6f565b5060a08201518051611c61916005840191602090910190613e6f565b5060c08201518051611c7d916006840191602090910190613e6f565b5060e08201518051611c99916007840191602090910190613e6f565b5061010082015160088201556101208201518051611cc1916009840191602090910190613e6f565b50610140820151600a820155610160820151600b8201805460ff19166001836007811115611d0657600080516020614349833981519152600052602160045260246000fd5b0217905550610180820151600b8201805474ffffffffffffffffffffffffffffffffffffffff001916610100600160a060020a03938416021790556101a0830151600c8301805473ffffffffffffffffffffffffffffffffffffffff199081169284169290921790556101c090930151600d909201805490931691161790556040517fa8142743f8f70a4c26f3691cf4ed59718381fb2f18070ec52be1f1022d85555790611db59085906141b6565b60405180910390a1505050565b600061173e600183613ba9565b611dd833611dc2565b611de157600080fd5b600060065488611df191906142a3565b90506000604051806101e001604052808a8152602001600654815260200189600160a060020a0316815260200189600160a060020a031681526020018881526020018781526020018681526020018581526020018381526020018481526020016000815260200160006007811115611e8057600080516020614349833981519152600052602160045260246000fd5b815260006020808301829052604080840183905260609384018390528d83526007825291829020845181558482015160018201559184015160028301805473ffffffffffffffffffffffffffffffffffffffff19908116600160a060020a0393841617909155938501516003840180549095169116179092556080830151805193945084939192611f1992600485019290910190613e6f565b5060a08201518051611f35916005840191602090910190613e6f565b5060c08201518051611f51916006840191602090910190613e6f565b5060e08201518051611f6d916007840191602090910190613e6f565b5061010082015160088201556101208201518051611f95916009840191602090910190613e6f565b50610140820151600a820155610160820151600b8201805460ff19166001836007811115611fda57600080516020614349833981519152600052602160045260246000fd5b0217905550610180820151600b8201805474ffffffffffffffffffffffffffffffffffffffff001916610100600160a060020a03938416021790556101a0830151600c8301805473ffffffffffffffffffffffffffffffffffffffff199081169284169290921790556101c090930151600d909201805490931691161790556006546120679060016142a3565b6006556040517f8e55ccfc9778ff8eba1646d765cf1982537ce0f9257054a17b48aad7452501839061209a908b906141b6565b60405180910390a1505050505050505050565b6120b633611731565b6120bf57600080fd5b8060066000828152600760208190526040909120600b015460ff16908111156120ff57600080516020614349833981519152600052602160045260246000fd5b1461210957600080fd5b600082815260076020908152604080832081516101e081018352815481526001820154938101939093526002810154600160a060020a03908116928401929092526003810154909116606083015260048101805460808401919061216c906142d2565b80601f0160208091040260200160405190810160405280929190818152602001828054612198906142d2565b80156121e55780601f106121ba576101008083540402835291602001916121e5565b820191906000526020600020905b8154815290600101906020018083116121c857829003601f168201915b505050505081526020016005820180546121fe906142d2565b80601f016020809104026020016040519081016040528092919081815260200182805461222a906142d2565b80156122775780601f1061224c57610100808354040283529160200191612277565b820191906000526020600020905b81548152906001019060200180831161225a57829003601f168201915b50505050508152602001600682018054612290906142d2565b80601f01602080910402602001604051908101604052809291908181526020018280546122bc906142d2565b80156123095780601f106122de57610100808354040283529160200191612309565b820191906000526020600020905b8154815290600101906020018083116122ec57829003601f168201915b50505050508152602001600782018054612322906142d2565b80601f016020809104026020016040519081016040528092919081815260200182805461234e906142d2565b801561239b5780601f106123705761010080835404028352916020019161239b565b820191906000526020600020905b81548152906001019060200180831161237e57829003601f168201915b50505050508152602001600882015481526020016009820180546123be906142d2565b80601f01602080910402602001604051908101604052809291908181526020018280546123ea906142d2565b80156124375780601f1061240c57610100808354040283529160200191612437565b820191906000526020600020905b81548152906001019060200180831161241a57829003601f168201915b5050509183525050600a8201546020820152600b82015460409091019060ff16600781111561247d57600080516020614349833981519152600052602160045260246000fd5b60078111156124a357600080516020614349833981519152600052602160045260246000fd5b8152600b8201546101009004600160a060020a039081166020830152600c8301548116604080840191909152600d9093015416606090910152339082018190526101c0820152905060076101608201819052506000838152600760209081526040918290208351815581840151600182015591830151600283018054600160a060020a0392831673ffffffffffffffffffffffffffffffffffffffff1991821617909155606085015160038501805491909316911617905560808301518051849392612576926004850192910190613e6f565b5060a08201518051612592916005840191602090910190613e6f565b5060c082015180516125ae916006840191602090910190613e6f565b5060e082015180516125ca916007840191602090910190613e6f565b50610100820151600882015561012082015180516125f2916009840191602090910190613e6f565b50610140820151600a820155610160820151600b8201805460ff1916600183600781111561263757600080516020614349833981519152600052602160045260246000fd5b0217905550610180820151600b8201805474ffffffffffffffffffffffffffffffffffffffff001916610100600160a060020a03938416021790556101a0830151600c8301805473ffffffffffffffffffffffffffffffffffffffff199081169284169290921790556101c090930151600d909201805490931691161790556040517f653d56639fee6b566a5c804764e9689de38645f0b733df89a36a1b7b42173dd890611db59085906141b6565b610bd333613d6a565b8060036000828152600760208190526040909120600b015460ff169081111561272f57600080516020614349833981519152600052602160045260246000fd5b1461273957600080fd5b6000828152600760205260409020600a01543481111561275857600080fd5b6000838152600760205260408120600a0154849161277682346142bb565b604051909150339082156108fc029083906000818181858888f193505050501580156127a6573d6000803e3d6000fd5b50600086815260076020908152604080832081516101e081018352815481526001820154938101939093526002810154600160a060020a03908116928401929092526003810154909116606083015260048101805460808401919061280a906142d2565b80601f0160208091040260200160405190810160405280929190818152602001828054612836906142d2565b80156128835780601f1061285857610100808354040283529160200191612883565b820191906000526020600020905b81548152906001019060200180831161286657829003601f168201915b5050505050815260200160058201805461289c906142d2565b80601f01602080910402602001604051908101604052809291908181526020018280546128c8906142d2565b80156129155780601f106128ea57610100808354040283529160200191612915565b820191906000526020600020905b8154815290600101906020018083116128f857829003601f168201915b5050505050815260200160068201805461292e906142d2565b80601f016020809104026020016040519081016040528092919081815260200182805461295a906142d2565b80156129a75780601f1061297c576101008083540402835291602001916129a7565b820191906000526020600020905b81548152906001019060200180831161298a57829003601f168201915b505050505081526020016007820180546129c0906142d2565b80601f01602080910402602001604051908101604052809291908181526020018280546129ec906142d2565b8015612a395780601f10612a0e57610100808354040283529160200191612a39565b820191906000526020600020905b815481529060010190602001808311612a1c57829003601f168201915b5050505050815260200160088201548152602001600982018054612a5c906142d2565b80601f0160208091040260200160405190810160405280929190818152602001828054612a88906142d2565b8015612ad55780601f10612aaa57610100808354040283529160200191612ad5565b820191906000526020600020905b815481529060010190602001808311612ab857829003601f168201915b5050509183525050600a8201546020820152600b82015460409091019060ff166007811115612b1b57600080516020614349833981519152600052602160045260246000fd5b6007811115612b4157600080516020614349833981519152600052602160045260246000fd5b8152600b8201546101009004600160a060020a039081166020830152600c8301548116604080840191909152600d909301541660609091015233908201819052610180820152905060046101608201819052506000878152600760209081526040918290208351815581840151600182015591830151600283018054600160a060020a0392831673ffffffffffffffffffffffffffffffffffffffff1991821617909155606085015160038501805491909316911617905560808301518051849392612c14926004850192910190613e6f565b5060a08201518051612c30916005840191602090910190613e6f565b5060c08201518051612c4c916006840191602090910190613e6f565b5060e08201518051612c68916007840191602090910190613e6f565b5061010082015160088201556101208201518051612c90916009840191602090910190613e6f565b50610140820151600a820155610160820151600b8201805460ff19166001836007811115612cd557600080516020614349833981519152600052602160045260246000fd5b0217905550610180820151600b82018054600160a060020a039283166101000274ffffffffffffffffffffffffffffffffffffffff00199091161790556101a0830151600c8301805491831673ffffffffffffffffffffffffffffffffffffffff199283161790556101c090930151600d909201805492821692909316919091179091556060820151610140830151604051919092169180156108fc02916000818181858888f19350505050158015612d92573d6000803e3d6000fd5b507f92f64ca637d023f354075a4be751b169c1a8a9ccb6d33cdd0cb352054399572787604051612dc291906141b6565b60405180910390a150505050505050565b612ddb61177d565b612de457600080fd5b61053281613dac565b612df633611dc2565b612dff57600080fd5b600081815260076020526040902060020154600160a060020a0316338114612e53576040517f08c379a000000000000000000000000000000000000000000000000000000000815260040161059b90614181565b8160016000828152600760208190526040909120600b015460ff1690811115612e9357600080516020614349833981519152600052602160045260246000fd5b14612eca576040517f08c379a000000000000000000000000000000000000000000000000000000000815260040161059b9061414a565b600083815260076020908152604080832081516101e081018352815481526001820154938101939093526002810154600160a060020a039081169284019290925260038101549091166060830152600481018054608084019190612f2d906142d2565b80601f0160208091040260200160405190810160405280929190818152602001828054612f59906142d2565b8015612fa65780601f10612f7b57610100808354040283529160200191612fa6565b820191906000526020600020905b815481529060010190602001808311612f8957829003601f168201915b50505050508152602001600582018054612fbf906142d2565b80601f0160208091040260200160405190810160405280929190818152602001828054612feb906142d2565b80156130385780601f1061300d57610100808354040283529160200191613038565b820191906000526020600020905b81548152906001019060200180831161301b57829003601f168201915b50505050508152602001600682018054613051906142d2565b80601f016020809104026020016040519081016040528092919081815260200182805461307d906142d2565b80156130ca5780601f1061309f576101008083540402835291602001916130ca565b820191906000526020600020905b8154815290600101906020018083116130ad57829003601f168201915b505050505081526020016007820180546130e3906142d2565b80601f016020809104026020016040519081016040528092919081815260200182805461310f906142d2565b801561315c5780601f106131315761010080835404028352916020019161315c565b820191906000526020600020905b81548152906001019060200180831161313f57829003601f168201915b505050505081526020016008820154815260200160098201805461317f906142d2565b80601f01602080910402602001604051908101604052809291908181526020018280546131ab906142d2565b80156131f85780601f106131cd576101008083540402835291602001916131f8565b820191906000526020600020905b8154815290600101906020018083116131db57829003601f168201915b5050509183525050600a8201546020820152600b82015460409091019060ff16600781111561323e57600080516020614349833981519152600052602160045260246000fd5b600781111561326457600080516020614349833981519152600052602160045260246000fd5b8152600b8201546101009004600160a060020a039081166020830152600c83015481166040830152600d90920154909116606090910152905060026101608201819052506000848152600760209081526040918290208351815581840151600182015591830151600283018054600160a060020a0392831673ffffffffffffffffffffffffffffffffffffffff1991821617909155606085015160038501805491909316911617905560808301518051849392613328926004850192910190613e6f565b5060a08201518051613344916005840191602090910190613e6f565b5060c08201518051613360916006840191602090910190613e6f565b5060e0820151805161337c916007840191602090910190613e6f565b50610100820151600882015561012082015180516133a4916009840191602090910190613e6f565b50610140820151600a820155610160820151600b8201805460ff191660018360078111156133e957600080516020614349833981519152600052602160045260246000fd5b0217905550610180820151600b8201805474ffffffffffffffffffffffffffffffffffffffff001916610100600160a060020a03938416021790556101a0830151600c8301805473ffffffffffffffffffffffffffffffffffffffff199081169284169290921790556101c090930151600d909201805490931691161790556040517f9b3b66e2380b690bae22c73ef1428fb0c91e72fe14a4b6defa13035214187aff906112529086906141b6565b6134a133611770565b6134aa57600080fd5b8060046000828152600760208190526040909120600b015460ff16908111156134ea57600080516020614349833981519152600052602160045260246000fd5b146134f457600080fd5b6000828152600760205260409020600b01546101009004600160a060020a031633811461354d576040517f08c379a000000000000000000000000000000000000000000000000000000000815260040161059b90614181565b600083815260076020908152604080832081516101e081018352815481526001820154938101939093526002810154600160a060020a0390811692840192909252600381015490911660608301526004810180546080840191906135b0906142d2565b80601f01602080910402602001604051908101604052809291908181526020018280546135dc906142d2565b80156136295780601f106135fe57610100808354040283529160200191613629565b820191906000526020600020905b81548152906001019060200180831161360c57829003601f168201915b50505050508152602001600582018054613642906142d2565b80601f016020809104026020016040519081016040528092919081815260200182805461366e906142d2565b80156136bb5780601f10613690576101008083540402835291602001916136bb565b820191906000526020600020905b81548152906001019060200180831161369e57829003601f168201915b505050505081526020016006820180546136d4906142d2565b80601f0160208091040260200160405190810160405280929190818152602001828054613700906142d2565b801561374d5780601f106137225761010080835404028352916020019161374d565b820191906000526020600020905b81548152906001019060200180831161373057829003601f168201915b50505050508152602001600782018054613766906142d2565b80601f0160208091040260200160405190810160405280929190818152602001828054613792906142d2565b80156137df5780601f106137b4576101008083540402835291602001916137df565b820191906000526020600020905b8154815290600101906020018083116137c257829003601f168201915b5050505050815260200160088201548152602001600982018054613802906142d2565b80601f016020809104026020016040519081016040528092919081815260200182805461382e906142d2565b801561387b5780601f106138505761010080835404028352916020019161387b565b820191906000526020600020905b81548152906001019060200180831161385e57829003601f168201915b5050509183525050600a8201546020820152600b82015460409091019060ff1660078111156138c157600080516020614349833981519152600052602160045260246000fd5b60078111156138e757600080516020614349833981519152600052602160045260246000fd5b8152600b8201546101009004600160a060020a039081166020830152600c83015481166040830152600d90920154909116606090910152905060056101608201819052506000848152600760209081526040918290208351815581840151600182015591830151600283018054600160a060020a0392831673ffffffffffffffffffffffffffffffffffffffff19918216179091556060850151600385018054919093169116179055608083015180518493926139ab926004850192910190613e6f565b5060a082015180516139c7916005840191602090910190613e6f565b5060c082015180516139e3916006840191602090910190613e6f565b5060e082015180516139ff916007840191602090910190613e6f565b5061010082015160088201556101208201518051613a27916009840191602090910190613e6f565b50610140820151600a820155610160820151600b8201805460ff19166001836007811115613a6c57600080516020614349833981519152600052602160045260246000fd5b0217905550610180820151600b8201805474ffffffffffffffffffffffffffffffffffffffff001916610100600160a060020a03938416021790556101a0830151600c8301805473ffffffffffffffffffffffffffffffffffffffff199081169284169290921790556101c090930151600d909201805490931691161790556040517ff00b9a5725b80c54016f42114f6ed7792d22eecb116011c4afac29c57bef6c95906112529086906141b6565b600160a060020a038116613b2e57600080fd5b613b388282613ba9565b15613b4257600080fd5b600160a060020a0316600090815260209190915260409020805460ff19166001179055565b613b72600482613b1b565b604051600160a060020a038216907f28b26e7a3d20aedbc5f8f2ebf7da671c0491723a2b78f47a097b0e46dee0714290600090a250565b6000600160a060020a038216613bbe57600080fd5b50600160a060020a03166000908152602091909152604090205460ff1690565b613be9600482613e27565b604051600160a060020a038216907fe3f5ed5f263f1f01764a96edfc7d025f511ec5f7d180e8816908b78bcf74f09890600090a250565b613c2b600282613e27565b604051600160a060020a038216907f126174f6cf49c81cdb4a9214c6b8f037bef55b4ec31e4fc776cea2a1c8a88d5990600090a250565b613c6d600282613b1b565b604051600160a060020a038216907fddbf200aa634dc3fb81cfd68583dd1040d1c751d335e1d86b631bde3e977fea890600090a250565b613caf600182613b1b565b604051600160a060020a038216907f2e0ded4123377a3c2bc9a26f1717655a129e2f20752924d42e730ec89c83dbd090600090a250565b613cf1600182613e27565b604051600160a060020a038216907fa5e0f060af304ab17dd418c7927e3da3ae7868189bf387aee09ab179ccc572f290600090a250565b613d33600382613b1b565b604051600160a060020a038216907f71ae26cad02663e3d92efd6ec56031a80d74a20c0ab4183faa8bf262261c9baa90600090a250565b613d75600382613e27565b604051600160a060020a038216907fdb7176e79cffef81cb01767dd0447a0b24bb72ca9778d4b245581086b2a7e6db90600090a250565b600160a060020a038116613dbf57600080fd5b60008054604051600160a060020a03808516939216917f5c486528ec3e3f0ea91181cff8116f02bfa350e03b8b6f12e00765adbb5af85c91a36000805473ffffffffffffffffffffffffffffffffffffffff1916600160a060020a0392909216919091179055565b600160a060020a038116613e3a57600080fd5b613e448282613ba9565b613e4d57600080fd5b600160a060020a0316600090815260209190915260409020805460ff19169055565b828054613e7b906142d2565b90600052602060002090601f016020900481019282613e9d5760008555613ee3565b82601f10613eb657805160ff1916838001178555613ee3565b82800160010185558215613ee3579182015b82811115613ee3578251825591602001919060010190613ec8565b50613eef929150613ef3565b5090565b5b80821115613eef5760008155600101613ef4565b8035600160a060020a038116811461174157600080fd5b600082601f830112613f2f578081fd5b813567ffffffffffffffff80821115613f4a57613f4a61432b565b604051601f8301601f191681016020018281118282101715613f6e57613f6e61432b565b604052828152848301602001861015613f85578384fd5b82602086016020830137918201602001929092529392505050565b600060208284031215613fb1578081fd5b613fba82613f08565b9392505050565b600060208284031215613fd2578081fd5b5035919050565b600080600080600080600060e0888a031215613ff3578283fd5b8735965061400360208901613f08565b9550604088013567ffffffffffffffff8082111561401f578485fd5b61402b8b838c01613f1f565b965060608a0135915080821115614040578485fd5b61404c8b838c01613f1f565b955060808a0135915080821115614061578485fd5b61406d8b838c01613f1f565b945060a08a0135915080821115614082578384fd5b61408e8b838c01613f1f565b935060c08a01359150808211156140a3578283fd5b506140b08a828b01613f1f565b91505092959891949750929550565b600080604083850312156140d1578182fd5b50508035926020909101359150565b60008151808452815b81811015614105576020818501810151868301820152016140e9565b818111156141165782602083870101525b50601f01601f19169290920160200192915050565b600160a060020a0391909116815260200190565b901515815260200190565b6020808252601f908201527f537570706c79436861696e3a204974656d206e6f742070726f63657373656400604082015260600190565b6020808252818101527f537570706c79436861696e3a2076657269667943616c6c6572206661696c6564604082015260600190565b90815260200190565b60006101008a8352896020840152600160a060020a03808a1660408501528089166060850152508060808401526141f8818401886140e0565b905082810360a084015261420c81876140e0565b905082810360c084015261422081866140e0565b905082810360e084015261423481856140e0565b9b9a5050505050505050505050565b60006101208b83528a60208401528960408401528060608401526142698184018a6140e0565b6080840198909852505060a0810194909452600160a060020a0392831660c085015290821660e08401521661010090910152949350505050565b600082198211156142b6576142b661430e565b500190565b6000828210156142cd576142cd61430e565b500390565b6002810460018216806142e657607f821691505b6020821081141561126d57600080516020614349833981519152600052602260045260246000fd5b600080516020614349833981519152600052601160045260246000fd5b600080516020614349833981519152600052604160045260246000fdfe4e487b7100000000000000000000000000000000000000000000000000000000a264697066735822122043891178a0da79a65ca3664575d27f346aa3c97228ab0fcb0d4d8bce773ac60b64736f6c63430008000033",
  "immutableReferences": {},
  "source": "pragma solidity >=0.4.24;\n\nimport \"../coffeecore/Ownable.sol\";\nimport \"../coffeeaccesscontrol/FarmerRole.sol\";\nimport \"../coffeeaccesscontrol/DistributorRole.sol\";\nimport \"../coffeeaccesscontrol/RetailerRole.sol\";\nimport \"../coffeeaccesscontrol/ConsumerRole.sol\";\n\n// Define a contract 'Supplychain'\ncontract SupplyChain is Ownable, FarmerRole, DistributorRole, RetailerRole, ConsumerRole {\n\n  // Define 'owner'\n  //address owner;\n\n  // Define a variable called 'upc' for Universal Product Code (UPC)\n  uint  upc;\n\n  // Define a variable called 'sku' for Stock Keeping Unit (SKU)\n  uint  sku;\n\n  // Define a public mapping 'items' that maps the UPC to an Item.\n  mapping (uint => Item) items;\n\n  // Define a public mapping 'itemsHistory' that maps the UPC to an array of TxHash, \n  // that track its journey through the supply chain -- to be sent from DApp.\n  mapping (uint => string[]) itemsHistory;\n  \n  // Define enum 'State' with the following values:\n  enum State \n  { \n    Harvested,  // 0\n    Processed,  // 1\n    Packed,     // 2\n    ForSale,    // 3\n    Sold,       // 4\n    Shipped,    // 5\n    Received,   // 6\n    Purchased   // 7\n    }\n\n  State constant defaultState = State.Harvested;\n\n  // Define a struct 'Item' with the following fields:\n  struct Item {\n    uint    sku;  // Stock Keeping Unit (SKU)\n    uint    upc; // Universal Product Code (UPC), generated by the Farmer, goes on the package, can be verified by the Consumer\n    address ownerID;  // Metamask-Ethereum address of the current owner as the product moves through 8 stages\n    address originFarmerID; // Metamask-Ethereum address of the Farmer\n    string  originFarmName; // Farmer Name\n    string  originFarmInformation;  // Farmer Information\n    string  originFarmLatitude; // Farm Latitude\n    string  originFarmLongitude;  // Farm Longitude\n    uint    productID;  // Product ID potentially a combination of upc + sku\n    string  productNotes; // Product Notes\n    uint    productPrice; // Product Price\n    State   itemState;  // Product State as represented in the enum above\n    address distributorID;  // Metamask-Ethereum address of the Distributor\n    address retailerID; // Metamask-Ethereum address of the Retailer\n    address consumerID; // Metamask-Ethereum address of the Consumer\n  }\n\n  // Define 8 events with the same 8 state values and accept 'upc' as input argument\n  event Harvested(uint upc);\n  event Processed(uint upc);\n  event Packed(uint upc);\n  event ForSale(uint upc);\n  event Sold(uint upc);\n  event Shipped(uint upc);\n  event Received(uint upc);\n  event Purchased(uint upc);\n\n  // Define a modifer that checks to see if msg.sender == owner of the contract\n  // modifier onlyOwner() {\n  //   require(msg.sender == owner());\n  //   _;\n  // }\n\n  // Define a modifer that verifies the Caller\n  modifier verifyCaller (address _address) {\n    require(msg.sender == _address, \"SupplyChain: verifyCaller failed\"); \n    _;\n  }\n\n  // Define a modifier that checks if the paid amount is sufficient to cover the price\n  modifier paidEnough(uint _price) { \n    require(msg.value >= _price); \n    _;\n  }\n  \n  // Define a modifier that checks the price and refunds the remaining balance\n  modifier checkValue(uint _upc) {\n    \n    uint _price = items[_upc].productPrice;\n    uint amountToReturn = msg.value - _price;\n    \n    //address payable consumerPayable = payable(msg.sender);\n    //address payable consumerPayable = address(uint160(items[_upc].consumerID));\n    //address payable consumerAddressPayable = payable(items[_upc].consumerID);\n    payable(msg.sender).transfer(amountToReturn);\n    _;\n  }\n\n  // Define a modifier that checks if an item.state of a upc is Harvested\n  modifier harvested(uint _upc) {\n    require(items[_upc].itemState == State.Harvested);\n    _;\n  }\n\n  // Define a modifier that checks if an item.state of a upc is Processed\n  modifier processed(uint _upc) {\n    require(items[_upc].itemState == State.Processed, \"SupplyChain: Item not processed\");\n    _;\n  }\n  \n  // Define a modifier that checks if an item.state of a upc is Packed\n  modifier packed(uint _upc) {\n    require(items[_upc].itemState == State.Packed);\n    _;\n  }\n\n  // Define a modifier that checks if an item.state of a upc is ForSale\n  modifier forSale(uint _upc) {\n    require(items[_upc].itemState == State.ForSale);\n    _;\n  }\n\n  // Define a modifier that checks if an item.state of a upc is Sold\n  modifier sold(uint _upc) {\n    require(items[_upc].itemState == State.Sold);\n    _;\n  }\n  \n  // Define a modifier that checks if an item.state of a upc is Shipped\n  modifier shipped(uint _upc) {\n    require(items[_upc].itemState == State.Shipped);\n    _;\n  }\n\n  // Define a modifier that checks if an item.state of a upc is Received\n  modifier received(uint _upc) {\n    require(items[_upc].itemState == State.Received);\n    _;\n  }\n\n  // Define a modifier that checks if an item.state of a upc is Purchased\n  modifier purchased(uint _upc) {\n    require(items[_upc].itemState == State.Purchased);\n    _;\n  }\n\n  // In the constructor set 'owner' to the address that instantiated the contract\n  // and set 'sku' to 1\n  // and set 'upc' to 1\n  constructor() public payable {\n    sku = 1;\n    upc = 1;\n  }\n\n  // Define a function 'kill' if required\n  function kill() public {\n    // if (msg.sender == owner) {\n    //   //TODO: review this\n    //   selfdestruct(payable(owner));\n    // }\n  }\n\n  // Define a function 'harvestItem' that allows a farmer to mark an item 'Harvested'\n  function harvestItem(uint _upc, address _originFarmerID, string memory _originFarmName, string memory _originFarmInformation, string memory  _originFarmLatitude, string memory _originFarmLongitude, string memory  _productNotes) public\n    onlyFarmer() \n  {\n    uint productID = _upc + sku;\n    // Add the new item as part of Harvest\n    Item memory newItem = Item(_upc, sku, _originFarmerID, _originFarmerID, _originFarmName, _originFarmInformation, _originFarmLatitude,_originFarmLongitude, productID, _productNotes, 0, State.Harvested, address(0), address(0), address(0));\n     \n    items[_upc] = newItem;\n\n    // Increment sku\n    sku = sku + 1;\n    // Emit the appropriate event\n    emit Harvested(_upc);\n  }\n\n  // Define a function 'processtItem' that allows a farmer to mark an item 'Processed'\n  function processItem(uint _upc) public\n    onlyFarmer()\n    verifyCaller(items[_upc].ownerID) \n    harvested(_upc)\n  {\n    // Call modifier to check if upc has passed previous supply chain stage\n    // Call modifier to verify caller of this function\n\n    Item memory harvestedItem = items[_upc];\n  \n    // Update the appropriate fields\n    harvestedItem.itemState = State.Processed;\n    \n    items[_upc] = harvestedItem;\n    \n    // Emit the appropriate event\n    emit Processed(_upc);\n  }\n\n  // Define a function 'packItem' that allows a farmer to mark an item 'Packed'\n  function packItem(uint _upc) public \n    onlyFarmer()\n    verifyCaller(items[_upc].ownerID) \n    processed(_upc)\n  {\n    // Call modifier to check if upc has passed previous supply chain stage\n    // Call modifier to verify caller of this function\n  \n    Item memory processedItem = items[_upc];\n  \n    // Update the appropriate fields\n    processedItem.itemState = State.Packed;\n    \n    items[_upc] = processedItem;\n\n    // Emit the appropriate event\n    emit Packed(_upc);\n    \n  }\n\n  // Define a function 'sellItem' that allows a farmer to mark an item 'ForSale'\n  function sellItem(uint _upc, uint _price) public\n    onlyFarmer() \n    verifyCaller(items[_upc].ownerID) \n    packed(_upc)  \n  {\n      // Call modifier to check if upc has passed previous supply chain stage\n      // Call modifier to verify caller of this function\n\n    // Update the appropriate fields\n    Item memory packedItem = items[_upc];\n  \n    // Update the appropriate fields\n    packedItem.itemState = State.ForSale;\n    packedItem.productPrice = _price;\n\n    items[_upc] = packedItem;\n    \n    // Emit the appropriate event\n    emit ForSale(_upc);\n    \n  }\n\n  // Define a function 'buyItem' that allows the disributor to mark an item 'Sold'\n  // Use the above defined modifiers to check if the item is available for sale, if the buyer has paid enough, \n  // and any excess ether sent is refunded back to the buyer\n  function buyItem(uint _upc) public payable \n    forSale(_upc) \n    paidEnough(items[_upc].productPrice) \n    checkValue(_upc)\n  {\n    // Call modifier to check if upc has passed previous supply chain stage\n    // Call modifer to check if buyer has paid enough\n    // Call modifer to send any excess ether back to buyer\n    Item memory soldItem = items[_upc];\n    // Update the appropriate fields - ownerID, distributorID, itemState\n    soldItem.ownerID = msg.sender;\n    soldItem.distributorID = msg.sender;\n    soldItem.itemState = State.Sold;\n\n    items[_upc] = soldItem;\n    // Transfer money to farmer\n    payable(soldItem.originFarmerID).transfer(soldItem.productPrice);\n    \n    // emit the appropriate event\n    emit Sold(_upc);\n  }\n\n  // Define a function 'shipItem' that allows the distributor to mark an item 'Shipped'\n  // Use the above modifers to check if the item is sold\n  function shipItem(uint _upc) public \n    onlyDistributor()\n    sold(_upc)\n    verifyCaller(items[_upc].distributorID)     \n  {\n    // Call modifier to check if upc has passed previous supply chain stage\n    // Call modifier to verify caller of this function\n\n    Item memory shippedItem = items[_upc];\n    // Update the appropriate fields\n    shippedItem.itemState = State.Shipped;\n    items[_upc] = shippedItem;\n    // Emit the appropriate event\n    emit Shipped(_upc);\n  }\n\n  // Define a function 'receiveItem' that allows the retailer to mark an item 'Received'\n  // Use the above modifiers to check if the item is shipped\n      //onlyRetailer() \n    //\n  function receiveItem(uint _upc) public shipped(_upc)\n  { \n    Item memory receivedItem = items[_upc];\n    // Update the appropriate fields - ownerID, retailerID, itemState\n    receivedItem.ownerID = msg.sender;\n    receivedItem.retailerID = msg.sender;\n    receivedItem.itemState = State.Received;\n\n    items[_upc] = receivedItem;\n    // Emit the appropriate event\n    emit Received(_upc);\n  }\n\n  // Define a function 'purchaseItem' that allows the consumer to mark an item 'Purchased'\n  // Use the above modifiers to check if the item is received\n\n  // Call modifier to check if upc has passed previous supply chain stage\n    // Access Control List enforced by calling Smart Contract / DApp\n  function purchaseItem(uint _upc) public\n    onlyConsumer()\n    received(_upc)\n  {\n    Item memory receivedItem = items[_upc];\n    // Update the appropriate fields - ownerID, consumerID, itemState\n    receivedItem.ownerID = msg.sender;\n    receivedItem.consumerID = msg.sender;\n    receivedItem.itemState = State.Purchased;\n\n    items[_upc] = receivedItem;\n    // Emit the appropriate event\n    emit Purchased(_upc);\n  }\n\n  // Define a function 'fetchItemBufferOne' that fetches the data\n  function fetchItemBufferOne(uint _upc) public view returns \n  (\n  uint    itemSKU,\n  uint    itemUPC,\n  address ownerID,\n  address originFarmerID,\n  string memory originFarmName,\n  string memory originFarmInformation,\n  string memory originFarmLatitude,\n  string memory originFarmLongitude\n  ) \n  {\n  // Assign values to the 8 parameters\n  itemSKU = items[_upc].sku;\n  itemUPC = items[_upc].upc;\n  ownerID  = items[_upc].ownerID;\n  originFarmerID = items[_upc].originFarmerID;\n  originFarmName= items[_upc].originFarmName;\n  originFarmInformation= items[_upc].originFarmInformation;\n  originFarmLatitude= items[_upc].originFarmLatitude;\n  originFarmLongitude= items[_upc].originFarmLongitude;\n  return \n  (\n  itemSKU,\n  itemUPC,\n  ownerID,\n  originFarmerID,\n  originFarmName,\n  originFarmInformation,\n  originFarmLatitude,\n  originFarmLongitude\n  );\n  }\n\n  // Define a function 'fetchItemBufferTwo' that fetches the data\n  function fetchItemBufferTwo(uint _upc) public view returns \n  (\n  uint    itemSKU,\n  uint    itemUPC,\n  uint    productID,\n  string memory productNotes,\n  uint    productPrice,\n  uint    itemState,\n  address distributorID,\n  address retailerID,\n  address consumerID\n  ) \n  {\n    // Assign values to the 9 parameters\n    itemSKU = items[_upc].sku;\n    itemUPC = items[_upc].upc;\n    productID  = items[_upc].productID;\n    productNotes = items[_upc].productNotes;\n    productPrice= items[_upc].productPrice;\n    itemState= uint(items[_upc].itemState);\n    distributorID= items[_upc].distributorID;\n    retailerID= items[_upc].retailerID;\n    consumerID = items[_upc].consumerID;\n    \n  return \n  (\n  itemSKU,\n  itemUPC,\n  productID,\n  productNotes,\n  productPrice,\n  itemState,\n  distributorID,\n  retailerID,\n  consumerID\n  );\n  }\n}\n",
  "sourcePath": "D:/Lineker/Dev/Udacity_blockchain/nd1309-Project-6b-Example-Template-master/nd1309-Project-6b/project-6/contracts/coffeebase/SupplyChain.sol",
  "compiler": {
    "name": "solc",
    "version": "0.8.0+commit.c7dfd78e.Emscripten.clang"
  },
  "schemaVersion": "3.4.1",
  "updatedAt": "2021-08-20T15:55:00.908Z",
  "networkType": "ethereum",
  "devdoc": {
    "kind": "dev",
    "methods": {},
    "version": 1
  },
  "userdoc": {
    "kind": "user",
    "methods": {
      "isOwner()": {
        "notice": "Check if the calling address is the owner of the contract"
      },
      "owner()": {
        "notice": "Look up the address of the owner"
      },
      "renounceOwnership()": {
        "notice": "Define a function to renounce ownerhip"
      },
      "transferOwnership(address)": {
        "notice": "Define a public function to transfer ownership"
      }
    },
    "version": 1
  }
}